{
  "_format": "hh-sol-artifact-1",
  "contractName": "MozStaking",
  "sourceName": "contracts/MozStaking.sol",
  "abi": [
    {
      "inputs": [
        {
          "internalType": "address",
          "name": "daoTreasury_",
          "type": "address"
        }
      ],
      "stateMutability": "nonpayable",
      "type": "constructor"
    },
    {
      "anonymous": false,
      "inputs": [
        {
          "indexed": true,
          "internalType": "address",
          "name": "userAddress",
          "type": "address"
        },
        {
          "indexed": false,
          "internalType": "uint256",
          "name": "xMozAmount",
          "type": "uint256"
        }
      ],
      "name": "CancelRedeem",
      "type": "event"
    },
    {
      "anonymous": false,
      "inputs": [
        {
          "indexed": true,
          "internalType": "address",
          "name": "from",
          "type": "address"
        },
        {
          "indexed": false,
          "internalType": "address",
          "name": "to",
          "type": "address"
        },
        {
          "indexed": false,
          "internalType": "uint256",
          "name": "amount",
          "type": "uint256"
        }
      ],
      "name": "Convert",
      "type": "event"
    },
    {
      "anonymous": false,
      "inputs": [
        {
          "indexed": true,
          "internalType": "address",
          "name": "userAddress",
          "type": "address"
        },
        {
          "indexed": false,
          "internalType": "uint256",
          "name": "xMozAmount",
          "type": "uint256"
        },
        {
          "indexed": false,
          "internalType": "uint256",
          "name": "mozAmount",
          "type": "uint256"
        }
      ],
      "name": "FinalizeRedeem",
      "type": "event"
    },
    {
      "anonymous": false,
      "inputs": [
        {
          "indexed": true,
          "internalType": "address",
          "name": "previousOwner",
          "type": "address"
        },
        {
          "indexed": true,
          "internalType": "address",
          "name": "newOwner",
          "type": "address"
        }
      ],
      "name": "OwnershipTransferred",
      "type": "event"
    },
    {
      "anonymous": false,
      "inputs": [
        {
          "indexed": true,
          "internalType": "address",
          "name": "userAddress",
          "type": "address"
        },
        {
          "indexed": false,
          "internalType": "uint256",
          "name": "xMozAmount",
          "type": "uint256"
        },
        {
          "indexed": false,
          "internalType": "uint256",
          "name": "mozAmount",
          "type": "uint256"
        },
        {
          "indexed": false,
          "internalType": "uint256",
          "name": "duration",
          "type": "uint256"
        }
      ],
      "name": "Redeem",
      "type": "event"
    },
    {
      "anonymous": false,
      "inputs": [
        {
          "indexed": false,
          "internalType": "uint256",
          "name": "minRedeemRatio",
          "type": "uint256"
        },
        {
          "indexed": false,
          "internalType": "uint256",
          "name": "mediumRedeemRatio",
          "type": "uint256"
        },
        {
          "indexed": false,
          "internalType": "uint256",
          "name": "maxRedeemRatio",
          "type": "uint256"
        },
        {
          "indexed": false,
          "internalType": "uint256",
          "name": "minRedeemDuration",
          "type": "uint256"
        },
        {
          "indexed": false,
          "internalType": "uint256",
          "name": "mediumRedeemDuration",
          "type": "uint256"
        },
        {
          "indexed": false,
          "internalType": "uint256",
          "name": "maxRedeemDuration",
          "type": "uint256"
        }
      ],
      "name": "UpdateRedeemSettings",
      "type": "event"
    },
    {
      "inputs": [],
      "name": "MAX_FIXED_RATIO",
      "outputs": [
        {
          "internalType": "uint256",
          "name": "",
          "type": "uint256"
        }
      ],
      "stateMutability": "view",
      "type": "function"
    },
    {
      "inputs": [
        {
          "internalType": "uint256",
          "name": "redeemIndex",
          "type": "uint256"
        }
      ],
      "name": "cancelRedeem",
      "outputs": [],
      "stateMutability": "nonpayable",
      "type": "function"
    },
    {
      "inputs": [
        {
          "internalType": "uint256",
          "name": "amount",
          "type": "uint256"
        }
      ],
      "name": "convert",
      "outputs": [],
      "stateMutability": "nonpayable",
      "type": "function"
    },
    {
      "inputs": [
        {
          "internalType": "uint256",
          "name": "amount",
          "type": "uint256"
        },
        {
          "internalType": "address",
          "name": "to",
          "type": "address"
        }
      ],
      "name": "convertTo",
      "outputs": [],
      "stateMutability": "nonpayable",
      "type": "function"
    },
    {
      "inputs": [],
      "name": "daoTreasury",
      "outputs": [
        {
          "internalType": "address",
          "name": "",
          "type": "address"
        }
      ],
      "stateMutability": "view",
      "type": "function"
    },
    {
      "inputs": [
        {
          "internalType": "uint256",
          "name": "redeemIndex",
          "type": "uint256"
        }
      ],
      "name": "finalizeRedeem",
      "outputs": [],
      "stateMutability": "nonpayable",
      "type": "function"
    },
    {
      "inputs": [
        {
          "internalType": "uint256",
          "name": "amount",
          "type": "uint256"
        },
        {
          "internalType": "uint256",
          "name": "duration",
          "type": "uint256"
        }
      ],
      "name": "getMozByVestingDuration",
      "outputs": [
        {
          "internalType": "uint256",
          "name": "",
          "type": "uint256"
        }
      ],
      "stateMutability": "view",
      "type": "function"
    },
    {
      "inputs": [
        {
          "internalType": "address",
          "name": "userAddress",
          "type": "address"
        }
      ],
      "name": "getRedeemingXMozBalance",
      "outputs": [
        {
          "internalType": "uint256",
          "name": "redeemingAmount",
          "type": "uint256"
        }
      ],
      "stateMutability": "view",
      "type": "function"
    },
    {
      "inputs": [
        {
          "internalType": "address",
          "name": "userAddress",
          "type": "address"
        },
        {
          "internalType": "uint256",
          "name": "redeemIndex",
          "type": "uint256"
        }
      ],
      "name": "getUserRedeem",
      "outputs": [
        {
          "internalType": "uint256",
          "name": "mozAmount",
          "type": "uint256"
        },
        {
          "internalType": "uint256",
          "name": "xMozAmount",
          "type": "uint256"
        },
        {
          "internalType": "uint256",
          "name": "endTime",
          "type": "uint256"
        }
      ],
      "stateMutability": "view",
      "type": "function"
    },
    {
      "inputs": [
        {
          "internalType": "address",
          "name": "userAddress",
          "type": "address"
        }
      ],
      "name": "getUserRedeemsLength",
      "outputs": [
        {
          "internalType": "uint256",
          "name": "",
          "type": "uint256"
        }
      ],
      "stateMutability": "view",
      "type": "function"
    },
    {
      "inputs": [
        {
          "internalType": "address",
          "name": "mozaicToken_",
          "type": "address"
        },
        {
          "internalType": "address",
          "name": "xMoztoken_",
          "type": "address"
        }
      ],
      "name": "initialize",
      "outputs": [],
      "stateMutability": "nonpayable",
      "type": "function"
    },
    {
      "inputs": [],
      "name": "maxRedeemDuration",
      "outputs": [
        {
          "internalType": "uint256",
          "name": "",
          "type": "uint256"
        }
      ],
      "stateMutability": "view",
      "type": "function"
    },
    {
      "inputs": [],
      "name": "maxRedeemRatio",
      "outputs": [
        {
          "internalType": "uint256",
          "name": "",
          "type": "uint256"
        }
      ],
      "stateMutability": "view",
      "type": "function"
    },
    {
      "inputs": [],
      "name": "mediumRedeemDuration",
      "outputs": [
        {
          "internalType": "uint256",
          "name": "",
          "type": "uint256"
        }
      ],
      "stateMutability": "view",
      "type": "function"
    },
    {
      "inputs": [],
      "name": "mediumRedeemRatio",
      "outputs": [
        {
          "internalType": "uint256",
          "name": "",
          "type": "uint256"
        }
      ],
      "stateMutability": "view",
      "type": "function"
    },
    {
      "inputs": [],
      "name": "minRedeemDuration",
      "outputs": [
        {
          "internalType": "uint256",
          "name": "",
          "type": "uint256"
        }
      ],
      "stateMutability": "view",
      "type": "function"
    },
    {
      "inputs": [],
      "name": "minRedeemRatio",
      "outputs": [
        {
          "internalType": "uint256",
          "name": "",
          "type": "uint256"
        }
      ],
      "stateMutability": "view",
      "type": "function"
    },
    {
      "inputs": [],
      "name": "mozaicToken",
      "outputs": [
        {
          "internalType": "contract IMozToken",
          "name": "",
          "type": "address"
        }
      ],
      "stateMutability": "view",
      "type": "function"
    },
    {
      "inputs": [],
      "name": "owner",
      "outputs": [
        {
          "internalType": "address",
          "name": "",
          "type": "address"
        }
      ],
      "stateMutability": "view",
      "type": "function"
    },
    {
      "inputs": [
        {
          "internalType": "uint256",
          "name": "xMozAmount",
          "type": "uint256"
        },
        {
          "internalType": "uint256",
          "name": "duration",
          "type": "uint256"
        }
      ],
      "name": "redeem",
      "outputs": [],
      "stateMutability": "nonpayable",
      "type": "function"
    },
    {
      "inputs": [],
      "name": "renounceOwnership",
      "outputs": [],
      "stateMutability": "nonpayable",
      "type": "function"
    },
    {
      "inputs": [
        {
          "internalType": "address",
          "name": "newOwner",
          "type": "address"
        }
      ],
      "name": "transferOwnership",
      "outputs": [],
      "stateMutability": "nonpayable",
      "type": "function"
    },
    {
      "inputs": [
        {
          "internalType": "uint256",
          "name": "minRedeemRatio_",
          "type": "uint256"
        },
        {
          "internalType": "uint256",
          "name": "mediumRedeemRatio_",
          "type": "uint256"
        },
        {
          "internalType": "uint256",
          "name": "maxRedeemRatio_",
          "type": "uint256"
        },
        {
          "internalType": "uint256",
          "name": "minRedeemDuration_",
          "type": "uint256"
        },
        {
          "internalType": "uint256",
          "name": "mediumRedeemDuration_",
          "type": "uint256"
        },
        {
          "internalType": "uint256",
          "name": "maxRedeemDuration_",
          "type": "uint256"
        }
      ],
      "name": "updateRedeemSettings",
      "outputs": [],
      "stateMutability": "nonpayable",
      "type": "function"
    },
    {
      "inputs": [
        {
          "internalType": "address",
          "name": "",
          "type": "address"
        },
        {
          "internalType": "uint256",
          "name": "",
          "type": "uint256"
        }
      ],
      "name": "userRedeems",
      "outputs": [
        {
          "internalType": "uint256",
          "name": "mozAmount",
          "type": "uint256"
        },
        {
          "internalType": "uint256",
          "name": "xMozAmount",
          "type": "uint256"
        },
        {
          "internalType": "uint256",
          "name": "endTime",
          "type": "uint256"
        }
      ],
      "stateMutability": "view",
      "type": "function"
    },
    {
      "inputs": [
        {
          "internalType": "address",
          "name": "",
          "type": "address"
        }
      ],
      "name": "xMozRedeemingBalances",
      "outputs": [
        {
          "internalType": "uint256",
          "name": "",
          "type": "uint256"
        }
      ],
      "stateMutability": "view",
      "type": "function"
    },
    {
      "inputs": [],
      "name": "xMozToken",
      "outputs": [
        {
          "internalType": "contract IXMozToken",
          "name": "",
          "type": "address"
        }
      ],
      "stateMutability": "view",
      "type": "function"
    }
  ],
  "bytecode": "0x60806040526032600455604b60055560646006556213c68060075562278d00600855623b538060095534801561003457600080fd5b506040516116c03803806116c08339810160408190526100539161011a565b61005c336100ca565b6001600160a01b0381166100a55760405162461bcd60e51b815260206004820152600c60248201526b24b73b30b634b21030b2323960a11b604482015260640160405180910390fd5b600380546001600160a01b0319166001600160a01b039290921691909117905561014a565b600080546001600160a01b038381166001600160a01b0319831681178455604051919092169283917f8be0079c531659141344cd1fd0a4f28419497f9722a3daafe3b4186f6b6457e09190a35050565b60006020828403121561012c57600080fd5b81516001600160a01b038116811461014357600080fd5b9392505050565b611567806101596000396000f3fe608060405234801561001057600080fd5b50600436106101ae5760003560e01c80638da5cb5b116100ee578063c4b1076611610097578063e07c9e1711610071578063e07c9e1714610396578063e3a2950b146103a9578063e9ed87f8146103b2578063f2fde38b146103bb57600080fd5b8063c4b1076614610371578063cc6c54231461037a578063ccda6af71461038d57600080fd5b8063a59c1606116100c8578063a59c160614610315578063aff6cbf114610335578063b90c2b521461034857600080fd5b80638da5cb5b146102e85780639226d836146102f9578063a3908e1b1461030257600080fd5b80635a1d34dc1161015b578063715018a611610135578063715018a6146102a757806379022a9f146102af5780637cbc2373146102c257806386a146ac146102d557600080fd5b80635a1d34dc14610279578063619ac95b1461028c57806370d74c951461029457600080fd5b8063485cc9551161018c578063485cc955146102235780634f62b7ec14610238578063539ffb771461026657600080fd5b806315e3473d146101b35780631c352679146101ef578063390f7eee146101f8575b600080fd5b6101dc6101c136600461135f565b6001600160a01b03166000908152600a602052604090205490565b6040519081526020015b60405180910390f35b6101dc60045481565b60015461020b906001600160a01b031681565b6040516001600160a01b0390911681526020016101e6565b610236610231366004611381565b6103ce565b005b61024b6102463660046113b4565b610501565b604080519384526020840192909252908201526060016101e6565b6102366102743660046113de565b610543565b6102366102873660046113f7565b6106ce565b6101dc606481565b60025461020b906001600160a01b031681565b61023661072a565b60035461020b906001600160a01b031681565b6102366102d036600461141a565b61073e565b6101dc6102e336600461141a565b610954565b6000546001600160a01b031661020b565b6101dc60085481565b6102366103103660046113de565b610a63565b6101dc61032336600461135f565b600a6020526000908152604090205481565b6102366103433660046113de565b610a70565b6101dc61035636600461135f565b6001600160a01b03166000908152600b602052604090205490565b6101dc60075481565b61024b6103883660046113b4565b610be0565b6101dc60055481565b6102366103a436600461143c565b610cbc565b6101dc60065481565b6101dc60095481565b6102366103c936600461135f565b610e8f565b6001600160a01b0382161515806103ed57506001600160a01b03811615155b61043e5760405162461bcd60e51b815260206004820152600c60248201527f496e76616c69642061646472000000000000000000000000000000000000000060448201526064015b60405180910390fd5b600354600160a01b900460ff16156104985760405162461bcd60e51b815260206004820152601260248201527f416c6561647920696e697469616c697a656400000000000000000000000000006044820152606401610435565b600180546001600160a01b0393841673ffffffffffffffffffffffffffffffffffffffff199182161790915560028054929093169116179055600380547fffffffffffffffffffffff00ffffffffffffffffffffffffffffffffffffffff16600160a01b179055565b600b602052816000526040600020818154811061051d57600080fd5b600091825260209091206003909102018054600182015460029092015490935090915083565b336000818152600b6020526040902054829081106105b75760405162461bcd60e51b815260206004820152602b60248201527f76616c696461746552656465656d3a2072656465656d20656e74727920646f6560448201526a1cc81b9bdd08195e1a5cdd60aa1b6064820152608401610435565b336000908152600a6020908152604080832054600b90925282208054919291869081106105e6576105e661147f565b9060005260206000209060030201905080600101548261060691906114ab565b336000818152600a60205260409081902092909255600254600184015492516394bf804d60e01b8152600481019390935260248301919091526001600160a01b0316906394bf804d90604401600060405180830381600087803b15801561066c57600080fd5b505af1158015610680573d6000803e3d6000fd5b50505050600181015460405190815233907f56d7520e387607a8daa892e3fed116badc2a636307bdc794b1c1aed97ae203f49060200160405180910390a26106c785610f1c565b5050505050565b333b61071c5760405162461bcd60e51b815260206004820152601660248201527f636f6e76657274546f3a206e6f7420616c6c6f776564000000000000000000006044820152606401610435565b6107268282610ffd565b5050565b61073261115c565b61073c60006111b6565b565b600082116107b45760405162461bcd60e51b815260206004820152602160248201527f72656465656d3a20784d6f7a416d6f756e742063616e6e6f74206265207a657260448201527f6f000000000000000000000000000000000000000000000000000000000000006064820152608401610435565b6007548110156108065760405162461bcd60e51b815260206004820152601860248201527f72656465656d3a20496e76616c6964206475726174696f6e00000000000000006044820152606401610435565b60006108128383610954565b600254604051633f34d4cf60e21b8152600481018690523360248201529192506001600160a01b03169063fcd3533c90604401600060405180830381600087803b15801561085f57600080fd5b505af1158015610873573d6000803e3d6000fd5b5050336000908152600a6020526040902054915050811561094e57604080518581526020810184905290810184905233907fbd5034ffbd47e4e72a94baa2cdb74c6fad73cb3bcdc13036b72ec8306f5a76469060600160405180910390a26108db84826114c2565b336000908152600a6020908152604080832093909355600b815290829020825160608101845285815291820187905291810161091786426114c2565b9052815460018181018455600093845260209384902083516003909302019182559282015192810192909255604001516002909101555b50505050565b60008060075483101561096b576000915050610a5d565b600754831015801561097e575060085483105b156109d85760075460085461099391906114ab565b6007546109a090856114ab565b6004546005546109b091906114ab565b6109ba91906114da565b6109c491906114f9565b6004546109d191906114c2565b9050610a43565b60085483101580156109eb575060095483105b15610a3e57600854600954610a0091906114ab565b600854610a0d90856114ab565b600554600654610a1d91906114ab565b610a2791906114da565b610a3191906114f9565b6005546109d191906114c2565b506006545b6064610a4f82866114da565b610a5991906114f9565b9150505b92915050565b610a6d8133610ffd565b50565b336000818152600b602052604090205482908110610ae45760405162461bcd60e51b815260206004820152602b60248201527f76616c696461746552656465656d3a2072656465656d20656e74727920646f6560448201526a1cc81b9bdd08195e1a5cdd60aa1b6064820152608401610435565b336000908152600a6020908152604080832054600b9092528220805491929186908110610b1357610b1361147f565b906000526020600020906003020190508060020154610b2f4290565b1015610ba35760405162461bcd60e51b815260206004820152603260248201527f66696e616c697a6552656465656d3a2076657374696e67206475726174696f6e60448201527f20686173206e6f7420656e6465642079657400000000000000000000000000006064820152608401610435565b6001810154610bb290836114ab565b336000818152600a602052604090209190915560018201548254610bd7929190611213565b6106c785610f1c565b6001600160a01b0382166000908152600b602052604081205481908190859085908110610c635760405162461bcd60e51b815260206004820152602b60248201527f76616c696461746552656465656d3a2072656465656d20656e74727920646f6560448201526a1cc81b9bdd08195e1a5cdd60aa1b6064820152608401610435565b6001600160a01b0387166000908152600b60205260408120805488908110610c8d57610c8d61147f565b906000526020600020906003020190508060000154816001015482600201549550955095505050509250925092565b610cc461115c565b848611158015610cd45750838511155b610d315760405162461bcd60e51b815260206004820152602860248201527f75706461746552656465656d53657474696e67733a2077726f6e6720726174696044820152676f2076616c75657360c01b6064820152608401610435565b8183108015610d3f57508082105b610db15760405162461bcd60e51b815260206004820152602b60248201527f75706461746552656465656d53657474696e67733a2077726f6e67206475726160448201527f74696f6e2076616c7565730000000000000000000000000000000000000000006064820152608401610435565b6064841115610e135760405162461bcd60e51b815260206004820152602860248201527f75706461746552656465656d53657474696e67733a2077726f6e6720726174696044820152676f2076616c75657360c01b6064820152608401610435565b6004869055600585905560068490556007839055600882905560098190556040805187815260208101879052908101859052606081018490526080810183905260a081018290527f3e4d06270c5626e5435a80d53329136371e0df74a6762eb79aa22d800d2cc6c29060c00160405180910390a1505050505050565b610e9761115c565b6001600160a01b038116610f135760405162461bcd60e51b815260206004820152602660248201527f4f776e61626c653a206e6577206f776e657220697320746865207a65726f206160448201527f64647265737300000000000000000000000000000000000000000000000000006064820152608401610435565b610a6d816111b6565b336000908152600b602052604090208054610f39906001906114ab565b81548110610f4957610f4961147f565b9060005260206000209060030201600b6000336001600160a01b03166001600160a01b031681526020019081526020016000208281548110610f8d57610f8d61147f565b600091825260208083208454600390930201918255600180850154908301556002938401549390910192909255338152600b90915260409020805480610fd557610fd561151b565b6000828152602081206003600019909301928302018181556001810182905560020155905550565b8161104a5760405162461bcd60e51b815260206004820152601e60248201527f636f6e766572743a20616d6f756e742063616e6e6f74206265206e756c6c00006044820152606401610435565b600154604051633f34d4cf60e21b8152600481018490523360248201526001600160a01b039091169063fcd3533c90604401600060405180830381600087803b15801561109657600080fd5b505af11580156110aa573d6000803e3d6000fd5b50506002546040516394bf804d60e01b8152600481018690526001600160a01b03858116602483015290911692506394bf804d9150604401600060405180830381600087803b1580156110fc57600080fd5b505af1158015611110573d6000803e3d6000fd5b5050604080516001600160a01b0385168152602081018690523393507fccfaeb3043a96a967dc036ab72e078a9632af809671bc2a1ac30a8043645f89e92500160405180910390a25050565b6000546001600160a01b0316331461073c5760405162461bcd60e51b815260206004820181905260248201527f4f776e61626c653a2063616c6c6572206973206e6f7420746865206f776e65726044820152606401610435565b600080546001600160a01b0383811673ffffffffffffffffffffffffffffffffffffffff19831681178455604051919092169283917f8be0079c531659141344cd1fd0a4f28419497f9722a3daafe3b4186f6b6457e09190a35050565b600061121f82846114ab565b6001546040516394bf804d60e01b8152600481018590526001600160a01b0387811660248301529293509116906394bf804d90604401600060405180830381600087803b15801561126f57600080fd5b505af1158015611283573d6000803e3d6000fd5b5050505060008111156112f9576001546003546040516394bf804d60e01b8152600481018490526001600160a01b0391821660248201529116906394bf804d90604401600060405180830381600087803b1580156112e057600080fd5b505af11580156112f4573d6000803e3d6000fd5b505050505b60408051848152602081018490526001600160a01b038616917f0da072ebd7a5649099f43a3776eb0cda17aca79426ee9f28aae203f5dfa04eda910160405180910390a250505050565b80356001600160a01b038116811461135a57600080fd5b919050565b60006020828403121561137157600080fd5b61137a82611343565b9392505050565b6000806040838503121561139457600080fd5b61139d83611343565b91506113ab60208401611343565b90509250929050565b600080604083850312156113c757600080fd5b6113d083611343565b946020939093013593505050565b6000602082840312156113f057600080fd5b5035919050565b6000806040838503121561140a57600080fd5b823591506113ab60208401611343565b6000806040838503121561142d57600080fd5b50508035926020909101359150565b60008060008060008060c0878903121561145557600080fd5b505084359660208601359650604086013595606081013595506080810135945060a0013592509050565b634e487b7160e01b600052603260045260246000fd5b634e487b7160e01b600052601160045260246000fd5b6000828210156114bd576114bd611495565b500390565b600082198211156114d5576114d5611495565b500190565b60008160001904831182151516156114f4576114f4611495565b500290565b60008261151657634e487b7160e01b600052601260045260246000fd5b500490565b634e487b7160e01b600052603160045260246000fdfea26469706673582212208df2d6ce9f42bc1da671cd0f357bfa4cb4d1d51c1913f74e71e38865ba9622af64736f6c63430008090033",
  "linkReferences": {},
  "deployedLinkReferences": {}
}